{
  "contractName": "Houses",
  "abi": [
    {
      "inputs": [],
      "payable": false,
      "stateMutability": "nonpayable",
      "type": "constructor"
    },
    {
      "constant": true,
      "inputs": [
        {
          "internalType": "uint256",
          "name": "",
          "type": "uint256"
        }
      ],
      "name": "houseToOwner",
      "outputs": [
        {
          "internalType": "address",
          "name": "",
          "type": "address"
        }
      ],
      "payable": false,
      "stateMutability": "view",
      "type": "function"
    },
    {
      "constant": true,
      "inputs": [
        {
          "internalType": "uint256",
          "name": "",
          "type": "uint256"
        }
      ],
      "name": "houses",
      "outputs": [
        {
          "internalType": "string",
          "name": "propietario",
          "type": "string"
        },
        {
          "internalType": "address",
          "name": "walletPropietario",
          "type": "address"
        },
        {
          "internalType": "string",
          "name": "curp",
          "type": "string"
        },
        {
          "internalType": "string",
          "name": "fecha",
          "type": "string"
        },
        {
          "internalType": "string",
          "name": "escritura",
          "type": "string"
        },
        {
          "internalType": "string",
          "name": "notaria",
          "type": "string"
        },
        {
          "internalType": "address",
          "name": "walletNotario",
          "type": "address"
        },
        {
          "internalType": "string",
          "name": "solicitud",
          "type": "string"
        },
        {
          "internalType": "string",
          "name": "ubicacion",
          "type": "string"
        }
      ],
      "payable": false,
      "stateMutability": "view",
      "type": "function"
    },
    {
      "constant": false,
      "inputs": [
        {
          "internalType": "string",
          "name": "_propietario",
          "type": "string"
        },
        {
          "internalType": "address",
          "name": "_walletPropietario",
          "type": "address"
        },
        {
          "internalType": "string",
          "name": "_curp",
          "type": "string"
        },
        {
          "internalType": "string",
          "name": "_fecha",
          "type": "string"
        },
        {
          "internalType": "string",
          "name": "_escritura",
          "type": "string"
        },
        {
          "internalType": "string",
          "name": "_notaria",
          "type": "string"
        },
        {
          "internalType": "address",
          "name": "_walletNotario",
          "type": "address"
        },
        {
          "internalType": "string",
          "name": "_solicitud",
          "type": "string"
        },
        {
          "internalType": "string",
          "name": "_ubicacion",
          "type": "string"
        },
        {
          "internalType": "string[]",
          "name": "_locationData",
          "type": "string[]"
        }
      ],
      "name": "createHouse",
      "outputs": [],
      "payable": false,
      "stateMutability": "nonpayable",
      "type": "function"
    },
    {
      "constant": false,
      "inputs": [
        {
          "internalType": "uint256",
          "name": "_index",
          "type": "uint256"
        },
        {
          "internalType": "string",
          "name": "_propietario",
          "type": "string"
        },
        {
          "internalType": "address",
          "name": "_walletPropietario",
          "type": "address"
        },
        {
          "internalType": "string",
          "name": "_curp",
          "type": "string"
        },
        {
          "internalType": "string",
          "name": "_fecha",
          "type": "string"
        },
        {
          "internalType": "string",
          "name": "_escritura",
          "type": "string"
        },
        {
          "internalType": "string",
          "name": "_notaria",
          "type": "string"
        },
        {
          "internalType": "address",
          "name": "_walletNotario",
          "type": "address"
        },
        {
          "internalType": "string",
          "name": "_solicitud",
          "type": "string"
        },
        {
          "internalType": "string",
          "name": "_ubicacion",
          "type": "string"
        },
        {
          "internalType": "string[]",
          "name": "_locationData",
          "type": "string[]"
        }
      ],
      "name": "editHouse",
      "outputs": [],
      "payable": false,
      "stateMutability": "nonpayable",
      "type": "function"
    },
    {
      "constant": true,
      "inputs": [],
      "name": "getAll",
      "outputs": [
        {
          "components": [
            {
              "internalType": "string",
              "name": "propietario",
              "type": "string"
            },
            {
              "internalType": "address",
              "name": "walletPropietario",
              "type": "address"
            },
            {
              "internalType": "string",
              "name": "curp",
              "type": "string"
            },
            {
              "internalType": "string",
              "name": "fecha",
              "type": "string"
            },
            {
              "internalType": "string",
              "name": "escritura",
              "type": "string"
            },
            {
              "internalType": "string",
              "name": "notaria",
              "type": "string"
            },
            {
              "internalType": "address",
              "name": "walletNotario",
              "type": "address"
            },
            {
              "internalType": "string",
              "name": "solicitud",
              "type": "string"
            },
            {
              "internalType": "string",
              "name": "ubicacion",
              "type": "string"
            },
            {
              "internalType": "string[]",
              "name": "locationData",
              "type": "string[]"
            }
          ],
          "internalType": "struct Houses.House[]",
          "name": "",
          "type": "tuple[]"
        }
      ],
      "payable": false,
      "stateMutability": "view",
      "type": "function"
    }
  ],
  "bytecode": "0x608060405234801561001057600080fd5b50611d73806100206000396000f3fe608060405234801561001057600080fd5b50600436106100575760003560e01c806353ed51431461005c57806364d2640e1461007a57806368f3657d14610096578063aeda852f146100b2578063cf9ce6fc146100ea575b600080fd5b61006461011a565b6040516100719190611a47565b60405180910390f35b610094600480360361008f919081019061140b565b61077d565b005b6100b060048036036100ab91908101906115cf565b6109fc565b005b6100cc60048036036100c791908101906115a6565b610b76565b6040516100e199989796959493929190611a69565b60405180910390f35b61010460048036036100ff91908101906115a6565b611039565b6040516101119190611a2c565b60405180910390f35b60606000805480602002602001604051908101604052809291908181526020016000905b8282101561077457838290600052602060002090600a020160405180610140016040529081600082018054600181600116156101000203166002900480601f0160208091040260200160405190810160405280929190818152602001828054600181600116156101000203166002900480156101fb5780601f106101d0576101008083540402835291602001916101fb565b820191906000526020600020905b8154815290600101906020018083116101de57829003601f168201915b505050505081526020016001820160009054906101000a900473ffffffffffffffffffffffffffffffffffffffff1673ffffffffffffffffffffffffffffffffffffffff1673ffffffffffffffffffffffffffffffffffffffff168152602001600282018054600181600116156101000203166002900480601f0160208091040260200160405190810160405280929190818152602001828054600181600116156101000203166002900480156102f35780601f106102c8576101008083540402835291602001916102f3565b820191906000526020600020905b8154815290600101906020018083116102d657829003601f168201915b50505050508152602001600382018054600181600116156101000203166002900480601f0160208091040260200160405190810160405280929190818152602001828054600181600116156101000203166002900480156103955780601f1061036a57610100808354040283529160200191610395565b820191906000526020600020905b81548152906001019060200180831161037857829003601f168201915b50505050508152602001600482018054600181600116156101000203166002900480601f0160208091040260200160405190810160405280929190818152602001828054600181600116156101000203166002900480156104375780601f1061040c57610100808354040283529160200191610437565b820191906000526020600020905b81548152906001019060200180831161041a57829003601f168201915b50505050508152602001600582018054600181600116156101000203166002900480601f0160208091040260200160405190810160405280929190818152602001828054600181600116156101000203166002900480156104d95780601f106104ae576101008083540402835291602001916104d9565b820191906000526020600020905b8154815290600101906020018083116104bc57829003601f168201915b505050505081526020016006820160009054906101000a900473ffffffffffffffffffffffffffffffffffffffff1673ffffffffffffffffffffffffffffffffffffffff1673ffffffffffffffffffffffffffffffffffffffff168152602001600782018054600181600116156101000203166002900480601f0160208091040260200160405190810160405280929190818152602001828054600181600116156101000203166002900480156105d15780601f106105a6576101008083540402835291602001916105d1565b820191906000526020600020905b8154815290600101906020018083116105b457829003601f168201915b50505050508152602001600882018054600181600116156101000203166002900480601f0160208091040260200160405190810160405280929190818152602001828054600181600116156101000203166002900480156106735780601f1061064857610100808354040283529160200191610673565b820191906000526020600020905b81548152906001019060200180831161065657829003601f168201915b5050505050815260200160098201805480602002602001604051908101604052809291908181526020016000905b8282101561075d578382906000526020600020018054600181600116156101000203166002900480601f0160208091040260200160405190810160405280929190818152602001828054600181600116156101000203166002900480156107495780601f1061071e57610100808354040283529160200191610749565b820191906000526020600020905b81548152906001019060200180831161072c57829003601f168201915b5050505050815260200190600101906106a1565b50505050815250508152602001906001019061013e565b50505050905090565b6000600160006040518061014001604052808e81526020018d73ffffffffffffffffffffffffffffffffffffffff1681526020018c81526020018b81526020018a81526020018981526020018873ffffffffffffffffffffffffffffffffffffffff168152602001878152602001868152602001858152509080600181540180825580915050906001820390600052602060002090600a020160009091929091909150600082015181600001908051906020019061083c92919061106c565b5060208201518160010160006101000a81548173ffffffffffffffffffffffffffffffffffffffff021916908373ffffffffffffffffffffffffffffffffffffffff16021790555060408201518160020190805190602001906108a092919061106c565b5060608201518160030190805190602001906108bd92919061106c565b5060808201518160040190805190602001906108da92919061106c565b5060a08201518160050190805190602001906108f792919061106c565b5060c08201518160060160006101000a81548173ffffffffffffffffffffffffffffffffffffffff021916908373ffffffffffffffffffffffffffffffffffffffff16021790555060e082015181600701908051906020019061095b92919061106c565b5061010082015181600801908051906020019061097992919061106c565b506101208201518160090190805190602001906109979291906110ec565b505050039050896001600083815260200190815260200160002060006101000a81548173ffffffffffffffffffffffffffffffffffffffff021916908373ffffffffffffffffffffffffffffffffffffffff1602179055505050505050505050505050565b6000808c81548110610a0a57fe5b90600052602060002090600a020190508a816000019080519060200190610a3292919061114c565b50898160010160006101000a81548173ffffffffffffffffffffffffffffffffffffffff021916908373ffffffffffffffffffffffffffffffffffffffff16021790555088816002019080519060200190610a8e92919061114c565b5087816003019080519060200190610aa792919061114c565b5086816004019080519060200190610ac092919061114c565b5085816005019080519060200190610ad992919061114c565b50848160060160006101000a81548173ffffffffffffffffffffffffffffffffffffffff021916908373ffffffffffffffffffffffffffffffffffffffff16021790555083816007019080519060200190610b3592919061114c565b5082816008019080519060200190610b4e92919061114c565b5081816009019080519060200190610b679291906111cc565b50505050505050505050505050565b60008181548110610b8357fe5b90600052602060002090600a0201600091509050806000018054600181600116156101000203166002900480601f016020809104026020016040519081016040528092919081815260200182805460018160011615610100020316600290048015610c2f5780601f10610c0457610100808354040283529160200191610c2f565b820191906000526020600020905b815481529060010190602001808311610c1257829003601f168201915b5050505050908060010160009054906101000a900473ffffffffffffffffffffffffffffffffffffffff1690806002018054600181600116156101000203166002900480601f016020809104026020016040519081016040528092919081815260200182805460018160011615610100020316600290048015610cf35780601f10610cc857610100808354040283529160200191610cf3565b820191906000526020600020905b815481529060010190602001808311610cd657829003601f168201915b505050505090806003018054600181600116156101000203166002900480601f016020809104026020016040519081016040528092919081815260200182805460018160011615610100020316600290048015610d915780601f10610d6657610100808354040283529160200191610d91565b820191906000526020600020905b815481529060010190602001808311610d7457829003601f168201915b505050505090806004018054600181600116156101000203166002900480601f016020809104026020016040519081016040528092919081815260200182805460018160011615610100020316600290048015610e2f5780601f10610e0457610100808354040283529160200191610e2f565b820191906000526020600020905b815481529060010190602001808311610e1257829003601f168201915b505050505090806005018054600181600116156101000203166002900480601f016020809104026020016040519081016040528092919081815260200182805460018160011615610100020316600290048015610ecd5780601f10610ea257610100808354040283529160200191610ecd565b820191906000526020600020905b815481529060010190602001808311610eb057829003601f168201915b5050505050908060060160009054906101000a900473ffffffffffffffffffffffffffffffffffffffff1690806007018054600181600116156101000203166002900480601f016020809104026020016040519081016040528092919081815260200182805460018160011615610100020316600290048015610f915780601f10610f6657610100808354040283529160200191610f91565b820191906000526020600020905b815481529060010190602001808311610f7457829003601f168201915b505050505090806008018054600181600116156101000203166002900480601f01602080910402602001604051908101604052809291908181526020018280546001816001161561010002031660029004801561102f5780601f106110045761010080835404028352916020019161102f565b820191906000526020600020905b81548152906001019060200180831161101257829003601f168201915b5050505050905089565b60016020528060005260406000206000915054906101000a900473ffffffffffffffffffffffffffffffffffffffff1681565b828054600181600116156101000203166002900490600052602060002090601f016020900481019282601f106110ad57805160ff19168380011785556110db565b828001600101855582156110db579182015b828111156110da5782518255916020019190600101906110bf565b5b5090506110e8919061122c565b5090565b82805482825590600052602060002090810192821561113b579160200282015b8281111561113a57825182908051906020019061112a92919061106c565b509160200191906001019061110c565b5b5090506111489190611251565b5090565b828054600181600116156101000203166002900490600052602060002090601f016020900481019282601f1061118d57805160ff19168380011785556111bb565b828001600101855582156111bb579182015b828111156111ba57825182559160200191906001019061119f565b5b5090506111c8919061122c565b5090565b82805482825590600052602060002090810192821561121b579160200282015b8281111561121a57825182908051906020019061120a92919061106c565b50916020019190600101906111ec565b5b5090506112289190611251565b5090565b61124e91905b8082111561124a576000816000905550600101611232565b5090565b90565b61127a91905b80821115611276576000818161126d919061127d565b50600101611257565b5090565b90565b50805460018160011615610100020316600290046000825580601f106112a357506112c2565b601f0160209004906000526020600020908101906112c1919061122c565b5b50565b6000813590506112d481611d02565b92915050565b600082601f8301126112eb57600080fd5b81356112fe6112f982611b54565b611b27565b9150818183526020840193506020810190508360005b83811015611344578135860161132a888261134e565b845260208401935060208301925050600181019050611314565b5050505092915050565b600082601f83011261135f57600080fd5b813561137261136d82611b7c565b611b27565b9150808252602083016020830185838301111561138e57600080fd5b611399838284611caf565b50505092915050565b600082601f8301126113b357600080fd5b81356113c66113c182611ba8565b611b27565b915080825260208301602083018583830111156113e257600080fd5b6113ed838284611caf565b50505092915050565b60008135905061140581611d19565b92915050565b6000806000806000806000806000806101408b8d03121561142b57600080fd5b60008b013567ffffffffffffffff81111561144557600080fd5b6114518d828e016113a2565b9a505060206114628d828e016112c5565b99505060408b013567ffffffffffffffff81111561147f57600080fd5b61148b8d828e016113a2565b98505060608b013567ffffffffffffffff8111156114a857600080fd5b6114b48d828e016113a2565b97505060808b013567ffffffffffffffff8111156114d157600080fd5b6114dd8d828e016113a2565b96505060a08b013567ffffffffffffffff8111156114fa57600080fd5b6115068d828e016113a2565b95505060c06115178d828e016112c5565b94505060e08b013567ffffffffffffffff81111561153457600080fd5b6115408d828e016113a2565b9350506101008b013567ffffffffffffffff81111561155e57600080fd5b61156a8d828e016113a2565b9250506101208b013567ffffffffffffffff81111561158857600080fd5b6115948d828e016112da565b9150509295989b9194979a5092959850565b6000602082840312156115b857600080fd5b60006115c6848285016113f6565b91505092915050565b60008060008060008060008060008060006101608c8e0312156115f157600080fd5b60006115ff8e828f016113f6565b9b505060208c013567ffffffffffffffff81111561161c57600080fd5b6116288e828f016113a2565b9a505060406116398e828f016112c5565b99505060608c013567ffffffffffffffff81111561165657600080fd5b6116628e828f016113a2565b98505060808c013567ffffffffffffffff81111561167f57600080fd5b61168b8e828f016113a2565b97505060a08c013567ffffffffffffffff8111156116a857600080fd5b6116b48e828f016113a2565b96505060c08c013567ffffffffffffffff8111156116d157600080fd5b6116dd8e828f016113a2565b95505060e06116ee8e828f016112c5565b9450506101008c013567ffffffffffffffff81111561170c57600080fd5b6117188e828f016113a2565b9350506101208c013567ffffffffffffffff81111561173657600080fd5b6117428e828f016113a2565b9250506101408c013567ffffffffffffffff81111561176057600080fd5b61176c8e828f016112da565b9150509295989b509295989b9093969950565b600061178b83836118af565b905092915050565b600061179f8383611921565b905092915050565b6117b081611c73565b82525050565b6117bf81611c73565b82525050565b60006117d082611bf4565b6117da8185611c2f565b9350836020820285016117ec85611bd4565b8060005b858110156118285784840389528151611809858261177f565b945061181483611c15565b925060208a019950506001810190506117f0565b50829750879550505050505092915050565b600061184582611bff565b61184f8185611c40565b93508360208202850161186185611be4565b8060005b8581101561189d578484038952815161187e8582611793565b945061188983611c22565b925060208a01995050600181019050611865565b50829750879550505050505092915050565b60006118ba82611c0a565b6118c48185611c51565b93506118d4818560208601611cbe565b6118dd81611cf1565b840191505092915050565b60006118f382611c0a565b6118fd8185611c62565b935061190d818560208601611cbe565b61191681611cf1565b840191505092915050565b600061014083016000830151848203600086015261193f82826118af565b915050602083015161195460208601826117a7565b506040830151848203604086015261196c82826118af565b9150506060830151848203606086015261198682826118af565b915050608083015184820360808601526119a082826118af565b91505060a083015184820360a08601526119ba82826118af565b91505060c08301516119cf60c08601826117a7565b5060e083015184820360e08601526119e782826118af565b915050610100830151848203610100860152611a0382826118af565b915050610120830151848203610120860152611a1f82826117c5565b9150508091505092915050565b6000602082019050611a4160008301846117b6565b92915050565b60006020820190508181036000830152611a61818461183a565b905092915050565b6000610120820190508181036000830152611a84818c6118e8565b9050611a93602083018b6117b6565b8181036040830152611aa5818a6118e8565b90508181036060830152611ab981896118e8565b90508181036080830152611acd81886118e8565b905081810360a0830152611ae181876118e8565b9050611af060c08301866117b6565b81810360e0830152611b0281856118e8565b9050818103610100830152611b1781846118e8565b90509a9950505050505050505050565b6000604051905081810181811067ffffffffffffffff82111715611b4a57600080fd5b8060405250919050565b600067ffffffffffffffff821115611b6b57600080fd5b602082029050602081019050919050565b600067ffffffffffffffff821115611b9357600080fd5b601f19601f8301169050602081019050919050565b600067ffffffffffffffff821115611bbf57600080fd5b601f19601f8301169050602081019050919050565b6000819050602082019050919050565b6000819050602082019050919050565b600081519050919050565b600081519050919050565b600081519050919050565b6000602082019050919050565b6000602082019050919050565b600082825260208201905092915050565b600082825260208201905092915050565b600082825260208201905092915050565b600082825260208201905092915050565b6000611c7e82611c85565b9050919050565b600073ffffffffffffffffffffffffffffffffffffffff82169050919050565b6000819050919050565b82818337600083830152505050565b60005b83811015611cdc578082015181840152602081019050611cc1565b83811115611ceb576000848401525b50505050565b6000601f19601f8301169050919050565b611d0b81611c73565b8114611d1657600080fd5b50565b611d2281611ca5565b8114611d2d57600080fd5b5056fea365627a7a7231582075aa94e1cd0893e545dd05e7788728319ff7726f7f4fff2fbcc2a91a4b0b00e86c6578706572696d656e74616cf564736f6c63430005100040",
  "source": "pragma solidity >=0.5.0 <0.6.0;\npragma experimental ABIEncoderV2;\n\n\ncontract Houses {\n    constructor() public {}\n\n    struct House {\n        string propietario;\n        address walletPropietario;\n        string curp;\n        string fecha;\n        string escritura;\n        string notaria;\n        address walletNotario;\n        string solicitud;\n        string ubicacion;\n        string[] locationData;\n    }\n\n    House[] public houses;\n\n    mapping (uint => address) public houseToOwner;\n\n    function createHouse(\n        string memory _propietario,\n        address _walletPropietario,\n        string memory _curp,\n        string memory _fecha,\n        string memory _escritura,\n        string memory _notaria,\n        address _walletNotario,\n        string memory _solicitud,\n        string memory _ubicacion,\n        string[] memory _locationData\n    ) public {\n        uint id = houses.push(House(\n        _propietario,\n        _walletPropietario,\n        _curp,\n        _fecha,\n        _escritura,\n        _notaria,\n        _walletNotario,\n        _solicitud,\n        _ubicacion,\n        _locationData\n        )) - 1;\n        houseToOwner[id] = _walletPropietario;\n    }\n\n    function editHouse(\n        uint _index,\n        string memory _propietario,\n        address _walletPropietario,\n        string memory _curp,\n        string memory _fecha,\n        string memory _escritura,\n        string memory _notaria,\n        address _walletNotario,\n        string memory _solicitud,\n        string memory _ubicacion,\n        string[] memory _locationData\n    ) public {\n        House storage myHouse = houses[_index];\n        myHouse.propietario = _propietario;\n        myHouse.walletPropietario = _walletPropietario;\n        myHouse.curp = _curp;\n        myHouse.fecha = _fecha;\n        myHouse.escritura = _escritura;\n        myHouse.notaria = _notaria;\n        myHouse.walletNotario = _walletNotario;\n        myHouse.solicitud = _solicitud;\n        myHouse.ubicacion = _ubicacion;\n        myHouse.locationData = _locationData;\n    }\n\n    function getAll() public view returns(House[] memory) {\n        return houses;\n    }\n}",
  "sourcePath": "/Users/IvanJobi/Desktop/TTFront-Contracts/src/contracts/Houses.sol",
  "compiler": {
    "name": "solc",
    "version": "0.5.16+commit.9c3226ce.Emscripten.clang"
  },
  "schemaVersion": "3.2.0",
  "updatedAt": "2020-06-14T07:07:20.502Z",
  "networkType": "ethereum",
  "devdoc": {
    "methods": {}
  },
  "userdoc": {
    "methods": {}
  }
}